:020000040000FA
:0800000000008A150A168C2E7F
:103D00008A150A16802E8A018A150A16832E00004B
:103D10000000000000000000031E832E9030980079
:103D20008316181598164030990083120330FA0054
:103D3000313090000C14F026EA3A031DB32EFA013C
:103D4000BA2EF026F900E33A0319BC2E7908EA3AB4
:103D50000319BA2E7908ED3A031DA12EE430EB26A3
:103D60000330FA00F026900198018316980183121F
:103D70008C01832EEB30E92EF026F600F026F500BC
:103D8000F026F100FB00F026F300F201213083124F
:103D9000031376020319D52E75080339FC00FD00C4
:103DA0000310FC0D20307C07D62E20308400F02636
:103DB0008000F207840AFB0BD72E72087306E830E6
:103DC000031DE92EE730EB2602270038E430031903
:103DD000E530EB26A12E64000C1EEB2E99000800A6
:103DE00064007A080319FE2E0C1CFE2E1010FA0B2C
:103DF000FA2E00340C100B308F0010148C1EF02E95
:103E00001A080800213076020319542F831603176D
:103E10008C17831203137508FC3903178D000313E5
:103E2000760803178F002030840003137D080319E0
:103E30002C2F831603170C140000000083120E08A9
:103E40008000840A0C088000840A8D0A0313FD0395
:103E5000F503F10AF10A152F7108FC00203E8400D9
:103E60000310FC0C760803178F0003137508031763
:103E70008D0003137C0803178D0703198F0A03179E
:103E80000D0803390319542F83160C140000000089
:103E900083120E088000840A0C088000840A8D0AB0
:103EA0000313F10AF10A3F2F7508F7007608F800AE
:103EB000FB010230F40071087B02031801347B0817
:103EC000203E840021307802031783160319722FD5
:103ED0008C1783011E307802803003197702031893
:103EE000BA2F742F8C138301770803178D000313E7
:103EF0007808031D892F083077020318892F0317CC
:103F000083168C1F862F831284308D0783011E3009
:103F10008A2F780803178F0000088E00840A000893
:103F20008C0083160C1555308D00AA308D008C1432
:103F3000000000008301831603178C1BC22F83121D
:103F4000031364000D1EA12F0D12831603170C110D
:103F50000C14000000008312840300080E06031DE9
:103F6000B62F840A00080C060319BA2F8301F40B3C
:103F70005B2F0034831203130230FB07F70A031987
:103F8000F80A592F831203130D12831603170C110D
:103F9000831203170D080339033C031DBA2F0330A6
:103FA0008D02831203130430FC00073084020000EA
:103FB000831603170C14000000000000000000002E
:103FC00000000008831203170E06031DEC2F840A5D
:103FD00000080C060319F32F83120313FC30F705B6
:103FE0000630FB02B62F831203178D0A840A831250
:083FF0000313FC0BD72FBA2FBD
:084000000200010000000000B5
:02400E00323F3F
:00000001FF
