:020000040000FA
:020000001128C5
:06000A0086308000A330E7
:10001000810002308200B6308300993084002C3099
:1000200085008501860183160313FF3085000030AB
:1000300086002030840083127320051D3728202875
:1000400005080339820727282B282F28332800305A
:100050008000840A372801308000840A3728023063
:100060008000840A372803308000840A37287920EA
:10007000851D1C283B2820303D28040803398207B1
:1000800044284B2852285F2806106520860D8617C5
:100090006520840A3D2806106520860C8617652099
:1000A000840A3D2886010830B800FF3086006520AC
:1000B00086016520B80B55285C28840A3D288601F6
:1000C000FF3086006C20840A3D28800B6828810B55
:1000D0006A28820B65280000820B6F28830B712829
:1000E000840B6C280000051973286520051D7528F0
:0E00F0006520851979286520851D7B286520EF
:00000001FF
