:020000040000FA
:020000000528D1
:06000A008316850186014A
:10001000831205080F39FF001F2020307E02031CC9
:1000200024287F0C07307F02031C27280F307F0213
:10003000031D2A2800307F06031D32280928FE01EF
:1000400000070007FE0008000610860D8617061040
:10005000860C861781308600423086002430860068
:1000600018308600803086000030860040308600E0
:100070000030860020308600003086004030860048
:100080000030860080308600003086003E308000E0
:100090009D308100800B4D28810B4A284F2800009D
:1000A00008002E30800076308100800B5828810BAC
:1000B00055285A28000008000E30800028308100A2
:0E00C000800B6328810B602865280000080073
:00000001FF
