:10000000830100308A000428203084002B30172020
:10001000A0308400A1301720A1308400AE3017201A
:1000200083010A128A11282F04068001840A04061B
:10003000031D14280034AB00AC1B25282C088A00B3
:100040002B08AB0A0319AC0A820083132C18831700
:100050002B08AB0A8400000808005B34703461345C
:10006000733473345D3400343D3400345B346134B4
:100070006C346934763465345D342034003454345F
:1000800065347334743469346E34673420346634C0
:100090006934723473347434203431343234383443
:1000A00020346234793474346534733420346F34DA
:1000B0006634203445344534503452344F344D3452
:1000C00020342E342E342E342034003420342D3479
:1000D0002034003454346834693473342034703438
:1000E00072346F346734723461346D342034743454
:1000F0006534733474347334203474346834653440
:100100002034733465347234693461346C3420348F
:1001100070346F34723474342E34203420344934C3
:100120007434203464346934733470346C3461341E
:10013000793473342034743468346534203474343E
:1001400065347834743420347334743472346934DC
:100150006E346734203427345B3461346C34693452
:10016000763465345D342734203465347634653430
:10017000723479340A3400345B34463441344934BF
:100180004C345D340A3400346234793420347434AD
:1001900068346534203464346F3477346E346C34AE
:1001A0006F34613464346534643420342E346834FC
:1001B000653478342034663469346C3465342034E2
:1001C00028347334653465342034653465347034D0
:1001D0005F3469346E34693474342E3463342934B2
:1001E0002E3420344934663420345B346634613430
:1001F00069346C345D3420346934743420347034A0
:10020000723469346E347434733420346F3475341A
:1002100074342034743468346534203445344534BF
:10022000503452344F344D340A3400344934663437
:100230002034743468346534203466346F346C345C
:100240006C346F34773469346E34673420347434EA
:1002500065347334743420347234653474347534D2
:1002600072346E34733420345B34703461347334DC
:1002700073345D3420347434683465342034453448
:100280004534503452344F344D3420346834613462
:10029000733420346234653465346E342034613410
:1002A0006C346C34203469346E3469347434693499
:1002B00061346C3469347A34653464342034743491
:1002C0006F34203430347834453445340A340034C3
:1002D0000A340A340A3450344934433454346534CB
:1002E000733474342034763432342D343034303432
:1002F00020342834633429343234303430343334C5
:1003000020345334683461346E34653420345434CA
:100310006F346C346D346934653420342D342034BA
:100320007334653465342034683474347434703410
:100330003A342F342F347734773477342E346D3485
:100340006934633472346F346334683469347034BC
:1003500063342E3463346F346D342F340A340034F4
:1003600066346534773420347334653463346F34E1
:100370006E34643473342C34203461346E34643419
:1003800020346534633468346F3465347334203416
:100390006234613463346B34203474346F34203409
:1003A000743468346534203475347334653472348D
:1003B00020347434683465342034613473346334E5
:1003C000693469342034763461346C34753465347E
:1003D00020346F3466342034743468346534203407
:1003E0007034723465347334733465346434203457
:1003F0006B34653479342C340A3400344B3465342E
:100400007934203470347234653473347334653421
:1004100064343A340A340A34003463346F346E344A
:10042000743465346E3474347334203466346F3409
:100430007234203479346F34753472342034653436
:10044000783461346D3469346E34613474346934B1
:100450006F346E342E340A340A3400345334743416
:1004600061347234743469346E34673420347534D2
:1004700070342034733465347234693461346C34CC
:100480002034403420343134393432343034303450
:10049000203462346134753464342C3420344E3466
:1004A0002C3438342C3431342C3420346E346F34C2
:1004B000203466346C346F347734203463346F34D2
:1004C0006E34743472346F346C3420342E342E34E1
:1004D0002E340A340A34003470346C347534733476
:1004E00020346F346E346534203428342B34313466
:1004F00029342C342034693465343A34203470344F
:10050000753474346334683428346734653474342F
:1005100063346834283429342B34313429340A3490
:040520000A34003465
:100B100000300313831208008312031324080A12FF
:100B20008A11652623080A128A11652EF100003009
:100B3000721871070310F10D0310F20CF20803197B
:100B40000800982D83120313981CAC2D831698125D
:100B50009816831218121816181DB42D1A08A10021
:100B600083169812981683120800C62D6400981CEC
:100B7000BF2D831698129816831218121816181D76
:100B8000C62D1A08A1008316981298168312031313
:100B90008C1EB62D1A080800CE2D8B138B1BCD2D65
:100BA000831603130C138C120C128C110C110D10E4
:100BB0008312101083160C108312121183168C10DE
:100BC0000B128B120B128B110B1383120800831262
:100BD0000313A30003178D000313230803178C00CE
:100BE00083168C13031320108B1B201403170C1572
:100BF0008B1355308D00AA308D008C148312031393
:100C00000D1E002E0D12831603170C110313201C4A
:100C10000B2E8B170C2E8B138312080083120313D9
:100C2000A3002308A3002308E7252408A300230A20
:100C3000E72D023083120313A800A9013630AA0061
:100C40002A0803192C2E6400A9080319AA03A90372
:100C50008C1E202E1A080800A80B1D2E00348312AB
:100C60000313A80003178D0083168C130C14831232
:100C70000C080313080083120313A300230A2F2672
:100C8000F400F30123082F26F100F2017308F104A8
:100C90007408F204080083120313AA00602E981C43
:100CA000572E831698129816831218121816181DAC
:100CB0005E2E1A08A10083169812981664008312FB
:100CC0000C1E4F2E2A089900080083120313A90056
:100CD000A800A90E0F30A9050A3029020318722EA8
:100CE0003030732E3730A90729084B262808A90071
:100CF0000F30A9050A3029020318802E3030812ECA
:100D00003730A90729084B2E83120313A400A30030
:100D10006430F20024080A128A11CA270A128A11C2
:100D2000003803199D2E6430F20024080A128A113B
:100D3000CA270A128A11303E4B266430F20024087A
:100D40000A128A11CA27F1006430F20071080A12EF
:100D50008A119625A4020A30F20023080A128A1189
:100D6000CA270A128A110038031DC12E6430F2000E
:100D700023080A128A11CA270A128A110038031995
:100D8000CB2E0A30F20024080A128A11CA270A124E
:100D90008A11303E4B260A30F20024080A128A11CA
:100DA000CA27F1000A30F20071080A128A1196254A
:100DB0000A128A11A4022408303E4B2E052F29085E
:100DC000AC0028080A128A111B200A128A114B262D
:100DD0002908AC0028080A128A111B200A128A115D
:100DE0000D3A031DF52E0A304B262908AC002808C1
:100DF0000A128A111B200A128A110A3A031D022FB5
:100E00000D304B26A80A0319A90A831203132908D7
:100E1000AC0028080A128A111B200A128A11003815
:100E200003190800DF2E0B308316031399001815E1
:100E30001812831298171816981283160C128C1217
:100E40001813831218138316981298168312080029
:100E5000FF30831603138100640013276830A80055
:100E60000130A900DE262E30A8000230A900DE26BF
:100E70006A30A8000030A900DE26B030A80001309A
:100E8000A900DE266C30A8000230A900DE2616304C
:100E9000A8000130A900DE26C430A8000030A90057
:100EA000DE260D30A8000230A900DE263F30A80063
:100EB0000030A900DE26A401A40AA601A701260885
:100EC0002F26EE3A031DA401A60A0319A70A003033
:100ED0002702803003192602031C5F2F2403031D01
:100EE000752F2D30A80000309C2FBC30A80000309A
:100EF000A900DE26A601A701260865260A128A1186
:100F00003430A8000030A900DE2626082F266526EA
:100F10000A128A116630A8000030A900DE26A60A4F
:100F20000319A70A01302702003003192602031C07
:100F30007C2F9030A8000230A900DE269030A80057
:100F40000230A900DE269030A8000230A900DE267B
:100F5000FE30A8000130A900DE26A5011926A30055
:100F6000A308031DC42F3630A8000030A900DE26D8
:100F7000A50A09302502031CAE2FA5019030A80058
:100F80000230A900DE26AE2F230A4B269030A8009F
:100F90000230C12FF100F5010310FD307207031C70
:100FA000F12FF401F0307205031DD92F0430F40045
:100FB000F20EF3010310F40AF20D031CDB2FF20C06
:100FC000720871020318F100F30DF40BDF2FF51F07
:100FD000EB2FF309F30A7308F51F0800F109F10A72
:100FE0000800F20C0318FA2FF20C031CF101031095
:100FF000F10C031C03107108F300F101F10DE72F50
:02400E00713A05
:10420000EE00EE00EE00EE00EE00EE00EE00EE003E
:10421000EE00EE00EE00EE00EE00EE00EE00EE002E
:10422000EE00EE00EE00EE00EE00EE00EE00EE001E
:10423000EE00EE00EE00EE00EE00EE00EE00EE000E
:10424000EE00EE00EE00EE00EE00EE00EE00EE00FE
:10425000EE00EE00EE00EE00EE00EE00EE00EE00EE
:10426000EE00EE00EE00EE00EE00EE00EE00EE00DE
:10427000EE00EE00EE00EE00EE00EE00EE00EE00CE
:10428000EE00EE00EE00EE00EE00EE00EE00EE00BE
:10429000EE00EE00EE00EE00EE00EE00EE00EE00AE
:1042A000EE00EE00EE00EE00EE00EE00EE00EE009E
:1042B000EE00EE00EE00EE00EE00EE00EE00EE008E
:1042C000EE00EE00EE00EE00EE00EE00EE00EE007E
:1042D000EE00EE00EE00EE00EE00EE00EE00EE006E
:1042E000EE00EE00EE00EE00EE00EE00EE00EE005E
:1042F000EE00EE00EE00EE00EE00EE00EE00EE004E
:00000001FF
