:020000040000FA
:020000000528D1
:06000A0083160313071327
:100010009816181218111F30990083129817981605
:100020001816A0014B20A200313A031D19281F20E9
:1000300011282208323A031D11282A201128A00174
:1000400020083C20A100243A03190800210843207D
:10005000A00A2028A00120083520A100243A031975
:10006000080021084320A00A2B28820755344E346B
:100070004F340A340D342434820744344F3453341B
:100080000A340D34243483160313981C4528831234
:0E0090002108990008008C1E4B281A08080051
:00000001FF
