:020000040000FA
:020000000528D1
:06000A0083160313071327
:100010009816181218111F30990083129817981605
:100020001816A0016B20A200313A031D19281F20C9
:1000300011282208303A031D37282B201128A0014F
:10004000061420084D20A100243A031908002108B5
:100050006320A00A2028A001061020084220A10049
:10006000243A0319080021086320A00A2C28A001C3
:1000700020085A20A100243A03190800210863200F
:10008000A00A3828820741347034613467346134FF
:1000900064346F340A340D342434820745346E34AA
:1000A000633465346E346434693464346F340A34D0
:1000B0000D34243482074534723472346F34723410
:1000C0000A340D34243483160313981C65288312D4
:0E00D0002108990008008C1E6B281A080800F1
:00000001FF
