:020000040000FA
:0600000000008A15882EA5
:101D00008A15802E8A0100008A15822E00000000AC
:101D1000031E822E903098008316181598161530E1
:101D2000990083120330FA00313090000C14EC2635
:101D3000EA3A031DAF2EFA01B62EEC26F900E33A7B
:101D40000319B82E7908EA3A0319B62E7908ED3A44
:101D5000031D9D2EE430E7260330FA00EC269001A7
:101D600098018316980183128C01822EEB30E52EA8
:101D7000EC26F600EC26F500EC26F100FB00EC2644
:101D8000F300F20121308312031376020319D12EDE
:101D900075080339FC00FD000310FC0D20307C07A2
:101DA000D22E20308400EC268000F207840AFB0B40
:101DB000D32E72087306E830031DE52EE730E726C0
:101DC000FE260038E4300319E530E7269D2E640036
:101DD0000C1EE72E9900080064007A080319FA2EF9
:101DE0000C1CFA2E1010FA0BF62E00340C100B30CF
:101DF0008F0010148C1EEC2E1A0808002130760279
:101E00000319502F831603178C17831203137508B9
:101E1000FC3903178D000313760803178F00203059
:101E2000840003137D080319282F831603170C144D
:101E30000000000083120E088000840A0C08800055
:101E4000840A8D0A0313FD03F503F10AF10A112F29
:101E50007108FC00203E84000310FC0C7608031778
:101E60008F000313750803178D0003137C080317F5
:101E70008D0703198F0A03170D0803390319502F13
:101E800083160C140000000083120E088000840AE0
:101E90000C088000840A8D0A0313F10AF10A3B2F13
:101EA0007508F7007608F800FB010230F4007108AD
:101EB0007B02031801347B08203E84002130780225
:101EC0000317831603196E2F8C1783010E307802C7
:101ED0008030031977020318B62F702F8C138301FB
:101EE000770803178D0003137808031D852F04302E
:101EF00077020318852F031783168C1F822F8312F6
:101F000084308D0783010E30862F780803178F00E9
:101F100000088E00840A00088C0083160C155530CA
:101F20008D00AA308D008C14000000008301831600
:101F300003178C1BBE2F8312031364000D1E9D2FED
:101F40000D12831603170C110C14000000008312ED
:101F5000840300080E06031DB22F840A00080C0635
:101F60000319B62F8301F40B572F00348312031388
:101F70000230FB07F70A0319F80A552F83120313DF
:101F80000D12831603170C11831203170D08033962
:101F9000033C031DB62F03308D028312031304305C
:101FA000FC00073084020000831603170C140000A5
:101FB000000000000000000000000008831203176A
:101FC0000E06031DE82F840A00080C060319EF2FE4
:101FD00083120313FC30F7050630FB02B22F831285
:101FE00003178D0A840A83120313FC0BD32FB62F19
:084000000200010000000000B5
:02400E00323F3F
:00000001FF
